:100000008FC00000A8C00000A6C00000A4C000006F
:10001000A2C00000A0C000009EC000009CC0000064
:100020009AC0000098C0000096C00000C1C3000044
:1000300068C4000090C000008EC000008CC00000AA
:100040008AC0000088C0000086C0000084C0000094
:1000500082C0000080C000007EC000007CC00000A4
:100060007AC0000078C0000076C0000074C00000B4
:1000700072C0000061236263646566676B6C6D6EBD
:100080006F707172353433323168696A36302A39AB
:10009000383739381201100102000008EB03442000
:1000A00001000102DC0109023E00020100C0320928
:1000B00004000001020201000524001001042402D2
:1000C000060524060001070582030800FF09040154
:1000D00000020A000000070504021000050705835E
:1000E00002100005040309041803440065006100C0
:1000F0006E002000430061006D0065007200610029
:1001000000001C034C005500460041002000430045
:10011000440043002000440065006D006F000000B3
:1001200011241FBECFEFD2E0DEBFCDBF11E0A0E0B3
:10013000B1E0EEE0F0E102C005900D92AC31B10704
:10014000D9F711E0ACE1B1E001C01D92A733B107CE
:10015000E1F775D05AC754CF84B7877F84BF88E151
:100160000FB6F89480936000109260000FBE90E08C
:1001700080E80FB6F89480936100909361000FBE01
:1001800008D3529A549A559A569A53985B985A980B
:100190005C981BB80895AF92BF92CF92DF92EF9216
:1001A000FF920F931F935B016C015C9A85E38A9524
:1001B000F1F700005C985D9A60E070E020E030E0CC
:1001C000A90181E0E82EF12C012D112D89B183FFC9
:1001D0000EC0D801C701062E04C0880F991FAA1FA0
:1001E000BB1F0A94D2F7282B392B4A2B5B2B5A9A28
:1001F000D801C701062E04C0880F991FAA1FBB1F74
:100200000A94D2F78A219B21AC21BD210097A10538
:10021000B10511F05E9801C05E9A5A986F5F7F4FEA
:100220006032710599F65D98B901CA011F910F916D
:10023000FF90EF90DF90CF90BF90AF9008952F92F6
:100240003F924F925F926F927F928F929F92BF9256
:10025000CF92DF92EF92FF920F931F93DF93CF9392
:10026000CDB7DEB727970FB6F894DEBF0FBECDBF70
:1002700073DF80E091E06CE171E0B3D67894FE0129
:10028000319687E0DF011D928A95E9F7EE24FF247D
:100290008701BB2422243324210180E091E040D651
:1002A0003C01CC243DC080E091E062D697FD37C090
:1002B0008C32910541F5E980FF2400E010E01E2D0D
:1002C0000027FF24EE248A8190E0A0E0B0E0DC016A
:1002D00099278827E82AF92A0A2B1B2B8C8190E082
:1002E000A0E0B0E0E82AF92A0A2B1B2B8B8190E0D2
:1002F000A0E0B0E0BA2FA92F982F8827E82AF92A82
:100300000A2B1B2B0BC0E1E0F0E0EC0FFD1FEB0D07
:10031000F11D8083B394BB2DB63008F0BB24C39489
:100320008C2D90E08615970508F4BDCFB701C80164
:1003300032DF3B014C01621573058405950569F1B7
:10034000CC24DD24D401C3010C2C04C0B695A795A0
:10035000979587950A94D2F7282F2170D201C10171
:100360000C2C04C0B695A795979587950A94D2F75B
:100370008170821749F0222339F0F601EC58FF4FC3
:10038000649180E091E049D50894C11CD11C80E2C1
:10039000C816D104B9F61301240180E091E0A8D574
:1003A0004FD47BCF0895089580E091E012C580E09E
:1003B00091E062C4923029F0933041F09130E9F439
:1003C00017C02EE330E0E6EAF0E01BC0813041F0D8
:1003D000813018F0823089F406C0E4EEF0E005C008
:1003E000E8EEF0E002C0E2E0F1E0249130E009C084
:1003F00022E130E0E4E9F0E004C020E030E0E0E0B9
:10040000F0E0DA011196FC93EE93C9010895282FCC
:10041000392FF901809135019091360186179707A0
:1004200018F4BC0120E035C061157105D9F7809141
:10043000E8008E778093E800F5CF80912E01882325
:10044000F1F18530C1F18091E80083FD36C08091E3
:10045000E80082FD2AC08091E80080FF1AC08091E8
:10046000F20090E006C021912093F10061507040AD
:1004700001966115710519F088309105A0F321E00E
:100480008830910509F020E08091E8008E77809314
:10049000E8006115710589F6222379F606C080917E
:1004A0002E01882361F0853061F08091E80082FFA1
:1004B000F6CF80E0089583E0089581E0089582E01A
:1004C000089583E00895E82FF92F809135019091E8
:1004D00036018617970718F4BC0120E037C0611574
:1004E0007105D9F78091E8008E778093E800F5CF09
:1004F00080912E01882309F43FC08530C9F1809195
:10050000E80083FD37C08091E80082FD2BC0809118
:10051000E80080FF1BC08091F20090E007C02491AA
:100520002093F1003196615070400196611571057C
:1005300019F08830910598F321E08830910509F091
:1005400020E08091E8008E778093E80061157105C6
:1005500079F6222369F606C080912E01882361F086
:10056000853061F08091E80082FFF6CF80E0089549
:1005700083E0089581E0089582E0089583E008957E
:10058000982F2CC0292F2F702093E900981739F04D
:100590007091EC002091ED005091F00003C0242FE9
:1005A000762F50E021FF19C03091EB003E7F309351
:1005B000EB003091ED003D7F3093ED003091EB008A
:1005C00031603093EB007093EC002093ED0050937A
:1005D000F0002091EE0027FF08C09F5F953090F259
:1005E0008F708093E90081E0089580E00895EF9294
:1005F000FF920F931F93CF93DF93162FE82EE701FF
:100600007E01F92EE70100E02AC09881992329F1A3
:100610006B81E981FA812C81892F8F70853018F5E3
:100620006295660F660F607C991F9927991F692B49
:10063000223010F096E001C092E028E030E040E087
:1006400003C04F5F220F331F2E173F07D0F3429591
:10065000407F492B95DF882331F00F5F25960117E6
:10066000A0F281E001C080E0DF91CF911F910F9156
:10067000FF90EF90089580912F0187FF13C004C071
:1006800080912E018823B9F08091E80082FFF8CF95
:100690008091E8008B778093E800089580912E0187
:1006A000882349F08091E80080FFF8CF8091E8002E
:1006B0008E778093E80008958091E4009091E500A2
:1006C00044E62091EC0020FF26C02091E80020FDA8
:1006D00016C020912E012223A1F02530A1F02091F7
:1006E000EB0025FD12C02091E4003091E5002817B1
:1006F000390739F3442359F04150C901E2CF80E072
:10070000089582E0089583E0089581E0089584E0EB
:10071000089580E008952091E80022FFDACFF9CF14
:1007200041D043D08091D8008F778093D8008091BA
:10073000D80080688093D8008091D8008F7D809306
:10074000D80084E089BD86E089BD09B400FEFDCFF4
:1007500010922E0110922A0110922C0110922B015E
:1007600080E060E042E00CDF8091E1008E7F8093CA
:10077000E1008091E20081608093E2008091E200DC
:1007800088608093E2008091E0008E7F8093E0009B
:100790000895E3E6F0E080818E7F808381E080939E
:1007A0002D01BECF1092E20008951092E10008954D
:1007B0001F920F920FB60F9211242F933F934F93D6
:1007C0005F936F937F938F939F93AF93BF93EF93B9
:1007D000FF938091E10082FF0AC08091E20082FFD6
:1007E00006C08091E1008B7F8093E10028D2809148
:1007F000E10080FF17C08091E20080FF13C080916C
:10080000E2008E7F8093E2008091E200806180931D
:10081000E2008091D80080628093D80019BC1092C9
:100820002E01C1DD8091E10084FF2FC08091E200A4
:1008300084FF2BC084E089BD86E089BD09B400FE39
:10084000FDCF8091D8008F7D8093D8008091E1000A
:100850008F7E8093E1008091E2008F7E8093E200A2
:100860008091E20081608093E20080912A018823D8
:1008700011F084E007C08091E30087FF02C083E0AD
:1008800001C081E080932E018DDD8091E10083FF26
:1008900027C08091E20083FF23C08091E100877F21
:1008A0008093E10082E080932E0110922A018091D2
:1008B000E1008E7F8093E1008091E2008E7F809343
:1008C000E2008091E20080618093E20080E060E0DD
:1008D00042E056DE8091F00088608093F000AFD156
:1008E000FF91EF91BF91AF919F918F917F916F9108
:1008F0005F914F913F912F910F900FBE0F901F90DE
:1009000018951F920F920FB60F9211241F932F93D9
:100910003F934F935F936F937F938F939F93AF9387
:10092000BF93EF93FF931091E9001F708091EC004B
:100930001092E9008091F000877F8093F000789416
:100940001BD01092E9008091F00088608093F00045
:100950001093E900FF91EF91BF91AF919F918F911B
:100960007F916F915F914F913F912F911F910F90C8
:100970000FBE0F901F9018951F93DF93CF93CDB7A5
:10098000DEB7AC970FB6F894DEBF0FBECDBFEFE277
:10099000F1E08091F100819321E0E733F207C9F79C
:1009A00006DD8091E80083FF32C180912F01209104
:1009B0003001253009F484C0263040F42130A1F103
:1009C000213070F0233009F022C12EC0283009F404
:1009D000F0C0293009F4FFC0263009F018C193C0D7
:1009E000803821F0823809F012C108C080912B01B3
:1009F00090912C01992371F082600CC08091330199
:100A00008F708093E9009091EB0081E095FF80E08A
:100A10001092E9009091E800977F9093E80080930E
:100A2000F1001092F100D0C0882319F0823009F053
:100A3000EEC090E08F719070009729F082309105A0
:100A400009F0E5C00BC080913101813009F0DFC0B1
:100A5000233009F080E080932C012CC0809131017B
:100A6000882341F5209133012F7009F4D0C02093E1
:100A7000E9008091EB0080FF1DC080913001833040
:100A800021F48091EB00806213C08091EB008061C3
:100A90008093EB0081E090E002C0880F991F2A95B7
:100AA000E2F78093EA001092EA008091EB00886000
:100AB0008093EB001092E9008091E800877F87C067
:100AC000882309F0A4C0109131011F778091E300C1
:100AD0008078812B8093E3008091E800877F80936A
:100AE000E800C9DD8091E80080FFFCCF8091E30041
:100AF00080688093E300112311F083E001C082E05D
:100B000080932E0184C08058823008F080C080918C
:100B100031019091320123E08C3D920791F583E001
:100B20008C838AE28B835FB7F894DE01159680E0B0
:100B300090E04EE061E2E42FF0E060935700E49132
:100B400080FF03C0E295EF704F5FEF702E2F30E013
:100B5000EA3018F0295C3F4F02C0205D3F4F2D93D3
:100B60003D9301968431910531F75FBF8091E80094
:100B7000877F8093E800CE0103966AE270E047DC4D
:100B800012C060913301AE014F5F5F4F13DCBC01B7
:100B9000009709F43CC08091E800877F8093E800CB
:100BA00089819A8190DC8091E8008B778093E800BE
:100BB0002EC0803861F58091E800877F8093E8003F
:100BC00080912A018093F1008091E8008E778093D4
:100BD000E80051DD1CC08823D1F49091310192309E
:100BE000B0F48091E800877F8093E80090932A0119
:100BF00042DD80912A01882321F48091E30087FF60
:100C000002C084E001C081E080932E01CDDB8091A1
:100C1000E80083FF0AC08091E800877F8093E800A6
:100C20008091EB0080628093EB00AC960FB6F89455
:100C3000DEBF0FBECDBFCF91DF911F910895089504
:100C40001F9380912E018823A9F08091E9008F7075
:100C50009091EC0090FF02C010E801C010E0182B4A
:100C60001092E9008091E80083FF01C085DE1F70CB
:100C70001093E9001F910895CF93DF93EC018091C9
:100C8000E80083FFA3C0888190E020913301309178
:100C900034012817390709F099C080913001813259
:100CA00069F0823220F4803209F090C03CC0823278
:100CB00009F46BC0833209F089C07AC080912F019A
:100CC000813A09F083C08091E800877F8093E80033
:100CD0008091E80080FFFCCF8C899D89AE89BF8917
:100CE0008093F100292F3A2F4B2F55272093F100A5
:100CF0009D01442755272093F1008B2F9927AA2780
:100D0000BB278093F100888D8093F100898D8093BB
:100D1000F1008A8D8093F1008091E8008E778093B6
:100D2000E800A9DC53C080912F01813209F04EC048
:100D30008091E800877F8093E80005C080912E01B4
:100D4000882309F443C08091E80082FFF7CF3091F7
:100D5000F1002091F1009091F1008091F1003C8B25
:100D60002D8B9E8B8F8B8091F100888F8091F1006D
:100D7000898F8091F1008A8F8091E8008B77809332
:100D8000E80079DCCE0140D121C080912F01813271
:100D9000E9F48091E800877F8093E8006CDC809123
:100DA000310190913201998B888BCE012DD10EC0EB
:100DB00080912F01813251F48091E800877F8093E8
:100DC000E80059DCCE01609131011ED1DF91CF9155
:100DD0000895CF93DF93EC014096FC018BE0DF0197
:100DE0001D928A95E9F782E08C83898783E08E875C
:100DF000CE01019661E0FBDB882359F0CE01069617
:100E000061E0F5DB882329F0CE010B9661E0EFDB92
:100E100001C080E0DF91CF910895DF93CF930F92CF
:100E2000CDB7DEB7FC0180912E018430F9F424891E
:100E30003589468957892115310541055105B1F09C
:100E400081818F708093E9008091E80085FD0AC060
:100E50008091E8008E778093E80069832DDC6981BA
:100E6000882329F46093F10080E001C082E00F90B4
:100E7000CF91DF910895282FFB0184859585622FFE
:100E8000CCDF882319F02FEF3FEF02C020E030E0E5
:100E9000C9010895FC0180912E01843019F524893F
:100EA0003589468957892115310541055105D1F00C
:100EB00081818F708093E9008091F2008823A1F0F6
:100EC0009091E8008091E8008E778093E80095FD8E
:100ED0000DC0F2DB882359F49091E8009E7790933F
:100EE000E800089582E0089580E0089580E0089584
:100EF00020912E01243099F4FC01248935894689FA
:100F00005789211531054105510549F021812F707F
:100F10002093E9002091E80020FF01C0BBCF089595
:100F2000FC0180912E018430F9F4248935894689A9
:100F300057892115310541055105B1F086818F7022
:100F40008093E9008091E80082FF0EC08091F2005A
:100F5000882331F48091E8008B778093E80004C007
:100F60002091F20030E002C020E030E0C901089595
:100F7000FC0180912E01843029F524893589468928
:100F800057892115310541055105E1F086818F70A2
:100F90008093E9008091E80082FF14C08091F20004
:100FA000882321F02091F10030E002C02FEF3FEFC5
:100FB0008091F200882341F48091E8008B77809340
:100FC000E80002C02FEF3FEFC9010895FC018485BE
:100FD0009585CEDF9C0197FF02C02EEF3FEFC90140
:100FE0000895FB012EE0DB011D922A95E9F723E02D
:100FF00023832BE337E03187208726EE37E03387E2
:0E10000022879587848708950895F894FFCF7E
:10100E00008310000001041000000182080000019E
:0C101E00000000000000000000000000C6
:00000001FF
